{
  "_format": "hh-sol-artifact-1",
  "contractName": "EscrowVault",
  "sourceName": "contracts/EscrowVault.sol",
  "abi": [
    {
      "inputs": [
        {
          "internalType": "address",
          "name": "_token",
          "type": "address"
        },
        {
          "internalType": "address",
          "name": "_feeWallet",
          "type": "address"
        }
      ],
      "stateMutability": "nonpayable",
      "type": "constructor"
    },
    {
      "anonymous": false,
      "inputs": [
        {
          "indexed": false,
          "internalType": "address",
          "name": "wallet",
          "type": "address"
        }
      ],
      "name": "FeeWalletUpdated",
      "type": "event"
    },
    {
      "anonymous": false,
      "inputs": [
        {
          "indexed": true,
          "internalType": "address",
          "name": "to",
          "type": "address"
        },
        {
          "indexed": false,
          "internalType": "uint256",
          "name": "amount",
          "type": "uint256"
        }
      ],
      "name": "Refunded",
      "type": "event"
    },
    {
      "anonymous": false,
      "inputs": [
        {
          "indexed": true,
          "internalType": "address",
          "name": "to",
          "type": "address"
        },
        {
          "indexed": false,
          "internalType": "uint256",
          "name": "amount",
          "type": "uint256"
        }
      ],
      "name": "Released",
      "type": "event"
    },
    {
      "inputs": [],
      "name": "feeWallet",
      "outputs": [
        {
          "internalType": "address",
          "name": "",
          "type": "address"
        }
      ],
      "stateMutability": "view",
      "type": "function"
    },
    {
      "inputs": [],
      "name": "owner",
      "outputs": [
        {
          "internalType": "address",
          "name": "",
          "type": "address"
        }
      ],
      "stateMutability": "view",
      "type": "function"
    },
    {
      "inputs": [
        {
          "internalType": "address",
          "name": "to",
          "type": "address"
        },
        {
          "internalType": "uint256",
          "name": "amount",
          "type": "uint256"
        }
      ],
      "name": "refund",
      "outputs": [],
      "stateMutability": "nonpayable",
      "type": "function"
    },
    {
      "inputs": [
        {
          "internalType": "address",
          "name": "to",
          "type": "address"
        },
        {
          "internalType": "uint256",
          "name": "amount",
          "type": "uint256"
        }
      ],
      "name": "release",
      "outputs": [],
      "stateMutability": "nonpayable",
      "type": "function"
    },
    {
      "inputs": [
        {
          "internalType": "address",
          "name": "_feeWallet",
          "type": "address"
        }
      ],
      "name": "setFeeWallet",
      "outputs": [],
      "stateMutability": "nonpayable",
      "type": "function"
    },
    {
      "inputs": [
        {
          "internalType": "address",
          "name": "_owner",
          "type": "address"
        }
      ],
      "name": "setOwner",
      "outputs": [],
      "stateMutability": "nonpayable",
      "type": "function"
    },
    {
      "inputs": [],
      "name": "token",
      "outputs": [
        {
          "internalType": "address",
          "name": "",
          "type": "address"
        }
      ],
      "stateMutability": "view",
      "type": "function"
    },
    {
      "inputs": [
        {
          "internalType": "address",
          "name": "erc20Token",
          "type": "address"
        },
        {
          "internalType": "address",
          "name": "to",
          "type": "address"
        }
      ],
      "name": "withdrawToken",
      "outputs": [],
      "stateMutability": "nonpayable",
      "type": "function"
    }
  ],
  "bytecode": "0x60a060405234801561001057600080fd5b506040516107c13803806107c183398101604081905261002f91610080565b600080546001600160a01b031990811633179091556001600160a01b03928316608052600180549290931691161790556100b3565b80516001600160a01b038116811461007b57600080fd5b919050565b6000806040838503121561009357600080fd5b61009c83610064565b91506100aa60208401610064565b90509250929050565b6080516106e56100dc600039600081816101350152818161018f015261039b01526106e56000f3fe608060405234801561001057600080fd5b50600436106100885760003560e01c80638da5cb5b1161005b5780638da5cb5b146100db57806390d49b9d1461010a578063f25f4b561461011d578063fc0c546a1461013057600080fd5b80630357371d1461008d57806313af4035146100a25780633aeac4e1146100b5578063410085df146100c8575b600080fd5b6100a061009b3660046105a3565b610157565b005b6100a06100b03660046105cd565b6101fc565b6100a06100c33660046105ef565b610248565b6100a06100d63660046105a3565b61036c565b6000546100ee906001600160a01b031681565b6040516001600160a01b03909116815260200160405180910390f35b6100a06101183660046105cd565b6103fc565b6001546100ee906001600160a01b031681565b6100ee7f000000000000000000000000000000000000000000000000000000000000000081565b6000546001600160a01b0316331461018a5760405162461bcd60e51b815260040161018190610622565b60405180910390fd5b6101b57f0000000000000000000000000000000000000000000000000000000000000000838361047a565b816001600160a01b03167fb21fb52d5749b80f3182f8c6992236b5e5576681880914484d7f4c9b062e619e826040516101f091815260200190565b60405180910390a25050565b6000546001600160a01b031633146102265760405162461bcd60e51b815260040161018190610622565b600080546001600160a01b0319166001600160a01b0392909216919091179055565b6000546001600160a01b031633146102725760405162461bcd60e51b815260040161018190610622565b6001600160a01b0381166102b25760405162461bcd60e51b81526020600482015260076024820152667a65726f2d746f60c81b6044820152606401610181565b6040516370a0823160e01b81523060048201526000906001600160a01b038416906370a0823190602401602060405180830381865afa1580156102f9573d6000803e3d6000fd5b505050506040513d601f19601f8201168201806040525081019061031d9190610645565b90506000811161035c5760405162461bcd60e51b815260206004820152600a6024820152696e6f2d62616c616e636560b01b6044820152606401610181565b61036783838361047a565b505050565b6000546001600160a01b031633146103965760405162461bcd60e51b815260040161018190610622565b6103c17f0000000000000000000000000000000000000000000000000000000000000000838361047a565b816001600160a01b03167fd7dee2702d63ad89917b6a4da9981c90c4d24f8c2bdfd64c604ecae57d8d0651826040516101f091815260200190565b6000546001600160a01b031633146104265760405162461bcd60e51b815260040161018190610622565b600180546001600160a01b0319166001600160a01b0383169081179091556040519081527f29acee77dafcfa0143d74a7ea236018f3a6e1fa71e27fc59bbfbc6b8ca8edccd9060200160405180910390a150565b604080516001600160a01b038481166024830152604480830185905283518084039091018152606490920183526020820180516001600160e01b031663a9059cbb60e01b17905291516000928392908716916104d6919061065e565b6000604051808303816000865af19150503d8060008114610513576040519150601f19603f3d011682016040523d82523d6000602084013e610518565b606091505b5091509150818015610542575080511580610542575080806020019051810190610542919061068d565b6105805760405162461bcd60e51b815260206004820152600f60248201526e1514905394d1915497d19052531151608a1b6044820152606401610181565b5050505050565b80356001600160a01b038116811461059e57600080fd5b919050565b600080604083850312156105b657600080fd5b6105bf83610587565b946020939093013593505050565b6000602082840312156105df57600080fd5b6105e882610587565b9392505050565b6000806040838503121561060257600080fd5b61060b83610587565b915061061960208401610587565b90509250929050565b6020808252600990820152683737ba16b7bbb732b960b91b604082015260600190565b60006020828403121561065757600080fd5b5051919050565b6000825160005b8181101561067f5760208186018101518583015201610665565b506000920191825250919050565b60006020828403121561069f57600080fd5b815180151581146105e857600080fdfea26469706673582212200fcdc429113410f88ff2c7cfee32f855b0a885bacfaef7923a9861bfeb622b4a64736f6c63430008180033",
  "linkReferences": {},
  "deployedLinkReferences": {}
}